:020000040000fa
:080000000201040000000000f1
:020000040000fa
:040200000000fe00fc
:020000040000fa
:0200000401f009
:04000000e7bf000056
:020000040000fa
:0200000401f009
:04000400ff7f00007a
:020000040000fa
:0200000401f009
:04000800feff0000f7
:020000040000fa
:0200000401f009
:04001400ffff0000ea
:020000040000fa
:1000080000010000000100000001000000010000e4
:1000180000010000000100000001000000010000d4
:10002800000100000001000000010000ae01000016
:1000380000010000000100000001000000010000b4
:1000480000010000000100000001000000010000a4
:100058000001000000010000000100000001000094
:100068000001000000010000000100000001000084
:100078000001000000010000000100000001000074
:100088000001000000010000000100000001000064
:100098000001000000010000000100000001000054
:1000a8000001000000010000000100000001000044
:1000b80000010000000100000001000082010000b2
:1000c8000001000000010000000100000001000024
:1000d8000001000000010000000100000001000014
:1000e8000001000000010000000100000001000004
:0800f8000001000000010000fe
:020000040000fa
:1001080000010000000100000001000000010000e3
:1001180000010000000100000001000000010000d3
:10012800000100000001000000010000ae01000015
:1001380000010000000100000001000000010000b3
:1001480000010000000100000001000000010000a3
:100158000001000000010000000100000001000093
:100168000001000000010000000100000001000083
:100178000001000000010000000100000001000073
:100188000001000000010000000100000001000063
:100198000001000000010000000100000001000053
:1001a8000001000000010000000100000001000043
:1001b80000010000000100000001000082010000b1
:1001c8000001000000010000000100000001000023
:1001d8000001000000010000000100000001000013
:1001e8000001000000010000000100000001000003
:0801f8000001000000010000fd
:020000040000fa
:100204008f852000007f220000018800000000008c
:1002140030010200000000008c60a80088e0a90002
:1002240090e0a800dd22a90041000900dd22a80019
:10023400dd22a900c522a900a002ae002801040005
:10024400000000002c01040000000000c5c2a90049
:10025400f8ff3700c5c2a800f6ff3700c122a90085
:10026400c1c2a900d362a900d562a900d922a900fc
:100274002241a8002301a9002321a8002341a800aa
:100284000000210040098800402e27001008880043
:1002940005e1a800f00f2000400e8800c01c2000db
:1002a400b00e880090392000c00e880050562000ff
:1002b400d00e8800c0032000600e88009039200012
:1002c400200e880090392000300e8800c1e1a8007b
:1002d400c021a800f0f72f0040158800700020000e
:1002e40030158800f033200020158800000020001d
:1002f40010158800e036280000158800000006006c
:10030400849fbe00869fbe00c522a80095392000a8
:1003140004148000a4428800980104000000000036
:100324008642800006025200b44288001301c000d5
:100334000400cc0005024200b40e8800858242000d
:1003440004825200c40e880088e0a9004f03be0056
:100354004f02be0000400600829fbe00849fbe0084
:10036400c5c2aa00924280003409800094428800e9
:10037400020252004722dd00844288008460a90002
:0c0384004f02be004f01be00004006000a
:020000040000fa
:1003900050080000080000000000000000000000fd
:00000001FF
