:020000040000fa
:080000000201040000000000f1
:020000040000fa
:040200000000fe00fc
:020000040000fa
:0200000401f009
:04000000e7bf000056
:020000040000fa
:0200000401f009
:04000400ff7f00007a
:020000040000fa
:0200000401f009
:04000800feff0000f7
:020000040000fa
:0200000401f009
:04001400ffff0000ea
:020000040000fa
:1000080000010000000100000001000000010000e4
:1000180000010000000100000001000000010000d4
:1000280000010000000100000001000024010000a0
:1000380000010000000100000001000000010000b4
:1000480000010000000100000001000000010000a4
:100058000001000000010000000100000001000094
:100068000001000000010000000100000001000084
:100078000001000000010000000100000001000074
:100088000001000000010000000100000001000064
:100098000001000000010000000100000001000054
:1000a8000001000000010000000100000001000044
:1000b8000001000000010000000100000001000034
:1000c8000001000000010000000100000001000024
:1000d8000001000000010000000100000001000014
:1000e8000001000000010000000100000001000004
:0800f8000001000000010000fe
:020000040000fa
:1001080000010000000100000001000000010000e3
:1001180000010000000100000001000000010000d3
:10012800000100000001000000010000240100009f
:1001380000010000000100000001000000010000b3
:1001480000010000000100000001000000010000a3
:100158000001000000010000000100000001000093
:100168000001000000010000000100000001000083
:100178000001000000010000000100000001000073
:100188000001000000010000000100000001000063
:100198000001000000010000000100000001000053
:1001a8000001000000010000000100000001000043
:1001b8000001000000010000000100000001000033
:1001c8000001000000010000000100000001000023
:1001d8000001000000010000000100000001000013
:1001e8000001000000010000000100000001000003
:0801f8000001000000010000fd
:020000040000fa
:100204002f802000007f22000001880000000000f1
:100214002301a9002321a8002341a800c122a90089
:10022400c0b52600100888000481a80004a1a80015
:1002340005e1a8008c60a800ffff3700c122a900d7
:1002440000000600849fbe00829fbe00c522aa0053
:1002540004002000340980008200520002002000c3
:10026400040178008460a9004f02be004f01be0063
:040274000040060040
:020000040000fa
:10027800000800000200000000000000000000006c
:00000001FF
